{
  "_format": "hh-sol-artifact-1",
  "contractName": "Raffle",
  "sourceName": "contracts/Raffle.sol",
  "abi": [
    {
      "inputs": [
        {
          "internalType": "address",
          "name": "vrfCoordinatorV2",
          "type": "address"
        },
        {
          "internalType": "uint256",
          "name": "entranceFee",
          "type": "uint256"
        },
        {
          "internalType": "bytes32",
          "name": "gaseLane",
          "type": "bytes32"
        },
        {
          "internalType": "uint64",
          "name": "subscriptionId",
          "type": "uint64"
        },
        {
          "internalType": "uint32",
          "name": "callbackGasLimit",
          "type": "uint32"
        },
        {
          "internalType": "uint256",
          "name": "interval",
          "type": "uint256"
        }
      ],
      "stateMutability": "nonpayable",
      "type": "constructor"
    },
    {
      "inputs": [
        {
          "internalType": "address",
          "name": "have",
          "type": "address"
        },
        {
          "internalType": "address",
          "name": "want",
          "type": "address"
        }
      ],
      "name": "OnlyCoordinatorCanFulfill",
      "type": "error"
    },
    {
      "inputs": [],
      "name": "Raffle__NotEnoughETHEntered",
      "type": "error"
    },
    {
      "inputs": [],
      "name": "Raffle__RaffleNotOpen",
      "type": "error"
    },
    {
      "inputs": [],
      "name": "Raffle__TransferFailded",
      "type": "error"
    },
    {
      "inputs": [
        {
          "internalType": "uint256",
          "name": "currentBalance",
          "type": "uint256"
        },
        {
          "internalType": "uint256",
          "name": "numPlayers",
          "type": "uint256"
        },
        {
          "internalType": "uint256",
          "name": "raffleState",
          "type": "uint256"
        }
      ],
      "name": "Raffle__UpkeepNotNeeded",
      "type": "error"
    },
    {
      "anonymous": false,
      "inputs": [
        {
          "indexed": true,
          "internalType": "address",
          "name": "player",
          "type": "address"
        }
      ],
      "name": "RaffleEnter",
      "type": "event"
    },
    {
      "anonymous": false,
      "inputs": [
        {
          "indexed": true,
          "internalType": "uint256",
          "name": "requestId",
          "type": "uint256"
        }
      ],
      "name": "RequestedRaffleWinner",
      "type": "event"
    },
    {
      "anonymous": false,
      "inputs": [
        {
          "indexed": false,
          "internalType": "address",
          "name": "winner",
          "type": "address"
        }
      ],
      "name": "WinnerPicked",
      "type": "event"
    },
    {
      "inputs": [
        {
          "internalType": "bytes",
          "name": "",
          "type": "bytes"
        }
      ],
      "name": "checkUpkeep",
      "outputs": [
        {
          "internalType": "bool",
          "name": "upkeepNeeded",
          "type": "bool"
        },
        {
          "internalType": "bytes",
          "name": "",
          "type": "bytes"
        }
      ],
      "stateMutability": "view",
      "type": "function"
    },
    {
      "inputs": [],
      "name": "enterRaffle",
      "outputs": [],
      "stateMutability": "payable",
      "type": "function"
    },
    {
      "inputs": [],
      "name": "getEntranceFee",
      "outputs": [
        {
          "internalType": "uint256",
          "name": "",
          "type": "uint256"
        }
      ],
      "stateMutability": "view",
      "type": "function"
    },
    {
      "inputs": [],
      "name": "getInterval",
      "outputs": [
        {
          "internalType": "uint256",
          "name": "",
          "type": "uint256"
        }
      ],
      "stateMutability": "view",
      "type": "function"
    },
    {
      "inputs": [],
      "name": "getLastTimeStamp",
      "outputs": [
        {
          "internalType": "uint256",
          "name": "",
          "type": "uint256"
        }
      ],
      "stateMutability": "view",
      "type": "function"
    },
    {
      "inputs": [],
      "name": "getNumWords",
      "outputs": [
        {
          "internalType": "uint256",
          "name": "",
          "type": "uint256"
        }
      ],
      "stateMutability": "pure",
      "type": "function"
    },
    {
      "inputs": [],
      "name": "getNumberOfPlayers",
      "outputs": [
        {
          "internalType": "uint256",
          "name": "",
          "type": "uint256"
        }
      ],
      "stateMutability": "view",
      "type": "function"
    },
    {
      "inputs": [
        {
          "internalType": "uint256",
          "name": "index",
          "type": "uint256"
        }
      ],
      "name": "getPlayer",
      "outputs": [
        {
          "internalType": "address",
          "name": "",
          "type": "address"
        }
      ],
      "stateMutability": "view",
      "type": "function"
    },
    {
      "inputs": [],
      "name": "getRaffleState",
      "outputs": [
        {
          "internalType": "enum Raffle.RaffleState",
          "name": "",
          "type": "uint8"
        }
      ],
      "stateMutability": "view",
      "type": "function"
    },
    {
      "inputs": [],
      "name": "getRecentWinner",
      "outputs": [
        {
          "internalType": "address",
          "name": "",
          "type": "address"
        }
      ],
      "stateMutability": "view",
      "type": "function"
    },
    {
      "inputs": [],
      "name": "getRequestConfirmations",
      "outputs": [
        {
          "internalType": "uint256",
          "name": "",
          "type": "uint256"
        }
      ],
      "stateMutability": "pure",
      "type": "function"
    },
    {
      "inputs": [
        {
          "internalType": "bytes",
          "name": "",
          "type": "bytes"
        }
      ],
      "name": "performUpkeep",
      "outputs": [],
      "stateMutability": "nonpayable",
      "type": "function"
    },
    {
      "inputs": [
        {
          "internalType": "uint256",
          "name": "requestId",
          "type": "uint256"
        },
        {
          "internalType": "uint256[]",
          "name": "randomWords",
          "type": "uint256[]"
        }
      ],
      "name": "rawFulfillRandomWords",
      "outputs": [],
      "stateMutability": "nonpayable",
      "type": "function"
    },
    {
      "inputs": [],
      "name": "requestRandomWinner",
      "outputs": [],
      "stateMutability": "nonpayable",
      "type": "function"
    }
  ],
  "bytecode": "0x6101606040523480156200001257600080fd5b5060405162001ad338038062001ad38339818101604052810190620000389190620001ad565b858073ffffffffffffffffffffffffffffffffffffffff1660808173ffffffffffffffffffffffffffffffffffffffff1660601b81525050508460a081815250508573ffffffffffffffffffffffffffffffffffffffff1660c08173ffffffffffffffffffffffffffffffffffffffff1660601b815250508360e081815250508267ffffffffffffffff166101008167ffffffffffffffff1660c01b815250508163ffffffff166101208163ffffffff1660e01b815250506000600260146101000a81548160ff02191690836001811115620001195762000118620002b5565b5b0217905550426001819055508061014081815250505050505050506200036b565b6000815190506200014b81620002e9565b92915050565b600081519050620001628162000303565b92915050565b60008151905062000179816200031d565b92915050565b600081519050620001908162000337565b92915050565b600081519050620001a78162000351565b92915050565b60008060008060008060c08789031215620001cd57620001cc620002e4565b5b6000620001dd89828a016200013a565b9650506020620001f089828a0162000168565b95505060406200020389828a0162000151565b94505060606200021689828a0162000196565b93505060806200022989828a016200017f565b92505060a06200023c89828a0162000168565b9150509295509295509295565b6000620002568262000267565b9050919050565b6000819050919050565b600073ffffffffffffffffffffffffffffffffffffffff82169050919050565b6000819050919050565b600063ffffffff82169050919050565b600067ffffffffffffffff82169050919050565b7f4e487b7100000000000000000000000000000000000000000000000000000000600052602160045260246000fd5b600080fd5b620002f48162000249565b81146200030057600080fd5b50565b6200030e816200025d565b81146200031a57600080fd5b50565b620003288162000287565b81146200033457600080fd5b50565b620003428162000291565b81146200034e57600080fd5b50565b6200035c81620002a1565b81146200036857600080fd5b50565b60805160601c60a05160c05160601c60e0516101005160c01c6101205160e01c610140516116d062000403600039600081816109910152610a030152600081816106ce015261086f0152600081816106ab015261084c01526000818161068a015261082b01526000818161064e01526107ef01526000818161032c015261042901526000818161036901526103bd01526116d06000f3fe6080604052600436106100dd5760003560e01c806353a2c19a1161007f57806391ad27b41161005957806391ad27b41461026a578063c1c244e814610295578063e55ae4e8146102c0578063fd6673f5146102fd576100dd565b806353a2c19a146101d65780635f1b0fd8146102015780636e04ff0d1461022c576100dd565b80632cfcc539116100bb5780632cfcc539146101615780634585e33b1461016b578063473f1ddc14610194578063522a1f0b146101bf576100dd565b806309bc33a7146100e2578063115cbaf51461010d5780631fe543e314610138575b600080fd5b3480156100ee57600080fd5b506100f7610328565b604051610104919061128e565b60405180910390f35b34801561011957600080fd5b50610122610350565b60405161012f9190611273565b60405180910390f35b34801561014457600080fd5b5061015f600480360381019061015a919061102e565b610367565b005b610169610427565b005b34801561017757600080fd5b50610192600480360381019061018d9190610f3e565b610596565b005b3480156101a057600080fd5b506101a9610796565b6040516101b69190611191565b60405180910390f35b3480156101cb57600080fd5b506101d46107c0565b005b3480156101e257600080fd5b506101eb610934565b6040516101f8919061128e565b60405180910390f35b34801561020d57600080fd5b50610216610941565b604051610223919061128e565b60405180910390f35b34801561023857600080fd5b50610253600480360381019061024e9190610f8b565b61094e565b6040516102619291906111f0565b60405180910390f35b34801561027657600080fd5b5061027f6109ff565b60405161028c919061128e565b60405180910390f35b3480156102a157600080fd5b506102aa610a27565b6040516102b7919061128e565b60405180910390f35b3480156102cc57600080fd5b506102e760048036038101906102e29190610fd4565b610a31565b6040516102f49190611191565b60405180910390f35b34801561030957600080fd5b50610312610a78565b60405161031f919061128e565b60405180910390f35b60007f0000000000000000000000000000000000000000000000000000000000000000905090565b6000600260149054906101000a900460ff16905090565b7f000000000000000000000000000000000000000000000000000000000000000073ffffffffffffffffffffffffffffffffffffffff163373ffffffffffffffffffffffffffffffffffffffff161461041957337f00000000000000000000000000000000000000000000000000000000000000006040517f1cf993f40000000000000000000000000000000000000000000000000000000081526004016104109291906111c7565b60405180910390fd5b6104238282610a84565b5050565b7f0000000000000000000000000000000000000000000000000000000000000000341015610481576040517fbd4e069500000000000000000000000000000000000000000000000000000000815260040160405180910390fd5b60006001811115610495576104946115b0565b5b600260149054906101000a900460ff1660018111156104b7576104b66115b0565b5b146104ee576040517fd24a271400000000000000000000000000000000000000000000000000000000815260040160405180910390fd5b6000339080600181540180825580915050600190039060005260206000200160009091909190916101000a81548173ffffffffffffffffffffffffffffffffffffffff021916908373ffffffffffffffffffffffffffffffffffffffff1602179055503373ffffffffffffffffffffffffffffffffffffffff167f0805e1d667bddb8a95f0f09880cf94f403fb596ce79928d9f29b74203ba284d460405160405180910390a2565b60006105b06040518060200160405280600081525061094e565b5090508061061f5747600080549050600260149054906101000a900460ff1660018111156105e1576105e06115b0565b5b6040517f584327aa000000000000000000000000000000000000000000000000000000008152600401610616939291906112a9565b60405180910390fd5b6001600260146101000a81548160ff02191690836001811115610645576106446115b0565b5b021790555060007f000000000000000000000000000000000000000000000000000000000000000073ffffffffffffffffffffffffffffffffffffffff16635d3b1d307f00000000000000000000000000000000000000000000000000000000000000007f000000000000000000000000000000000000000000000000000000000000000060037f000000000000000000000000000000000000000000000000000000000000000060016040518663ffffffff1660e01b815260040161070f959493929190611220565b602060405180830381600087803b15801561072957600080fd5b505af115801561073d573d6000803e3d6000fd5b505050506040513d601f19601f820116820180604052508101906107619190611001565b9050807fcd6e45c8998311cab7e9d4385596cac867e20a0587194b954fa3a731c93ce78b60405160405180910390a250505050565b6000600260009054906101000a900473ffffffffffffffffffffffffffffffffffffffff16905090565b6001600260146101000a81548160ff021916908360018111156107e6576107e56115b0565b5b021790555060007f000000000000000000000000000000000000000000000000000000000000000073ffffffffffffffffffffffffffffffffffffffff16635d3b1d307f00000000000000000000000000000000000000000000000000000000000000007f000000000000000000000000000000000000000000000000000000000000000060037f000000000000000000000000000000000000000000000000000000000000000060016040518663ffffffff1660e01b81526004016108b0959493929190611220565b602060405180830381600087803b1580156108ca57600080fd5b505af11580156108de573d6000803e3d6000fd5b505050506040513d601f19601f820116820180604052508101906109029190611001565b9050807fcd6e45c8998311cab7e9d4385596cac867e20a0587194b954fa3a731c93ce78b60405160405180910390a250565b6000600161ffff16905090565b6000600361ffff16905090565b600060606000600260149054906101000a900460ff166001811115610976576109756115b0565b5b6000600181111561098a576109896115b0565b5b14905060007f0000000000000000000000000000000000000000000000000000000000000000600154426109be9190611389565b119050600080600080549050119050600080471190508280156109de5750835b80156109e75750805b80156109f05750815b95506001955050505050915091565b60007f0000000000000000000000000000000000000000000000000000000000000000905090565b6000600154905090565b6000808281548110610a4657610a456115df565b5b9060005260206000200160009054906101000a900473ffffffffffffffffffffffffffffffffffffffff169050919050565b60008080549050905090565b6000808054905082600081518110610a9f57610a9e6115df565b5b6020026020010151610ab19190611521565b90506000808281548110610ac857610ac76115df565b5b9060005260206000200160009054906101000a900473ffffffffffffffffffffffffffffffffffffffff16905080600260006101000a81548173ffffffffffffffffffffffffffffffffffffffff021916908373ffffffffffffffffffffffffffffffffffffffff160217905550600067ffffffffffffffff811115610b5157610b5061160e565b5b604051908082528060200260200182016040528015610b7f5781602001602082028036833780820191505090505b5060009080519060200190610b95929190610d09565b506000600260146101000a81548160ff02191690836001811115610bbc57610bbb6115b0565b5b02179055504260018190555060008173ffffffffffffffffffffffffffffffffffffffff1647604051610bee9061117c565b60006040518083038185875af1925050503d8060008114610c2b576040519150601f19603f3d011682016040523d82523d6000602084013e610c30565b606091505b5050905080610c6b576040517f7e9ce22200000000000000000000000000000000000000000000000000000000815260040160405180910390fd5b600067ffffffffffffffff811115610c8657610c8561160e565b5b604051908082528060200260200182016040528015610cb45781602001602082028036833780820191505090505b5060009080519060200190610cca929190610d09565b507f5b690ec4a06fe979403046eaeea5b3ce38524683c3001f662c8b5a829632f7df82604051610cfa91906111ac565b60405180910390a15050505050565b828054828255906000526020600020908101928215610d82579160200282015b82811115610d815782518260006101000a81548173ffffffffffffffffffffffffffffffffffffffff021916908373ffffffffffffffffffffffffffffffffffffffff16021790555091602001919060010190610d29565b5b509050610d8f9190610d93565b5090565b5b80821115610dac576000816000905550600101610d94565b5090565b6000610dc3610dbe84611305565b6112e0565b90508083825260208201905082856020860282011115610de657610de5611647565b5b60005b85811015610e165781610dfc8882610f14565b845260208401935060208301925050600181019050610de9565b5050509392505050565b6000610e33610e2e84611331565b6112e0565b905082815260208101848484011115610e4f57610e4e61164c565b5b610e5a8482856114ae565b509392505050565b600082601f830112610e7757610e76611642565b5b8135610e87848260208601610db0565b91505092915050565b60008083601f840112610ea657610ea5611642565b5b8235905067ffffffffffffffff811115610ec357610ec261163d565b5b602083019150836001820283011115610edf57610ede611647565b5b9250929050565b600082601f830112610efb57610efa611642565b5b8135610f0b848260208601610e20565b91505092915050565b600081359050610f2381611683565b92915050565b600081519050610f3881611683565b92915050565b60008060208385031215610f5557610f54611656565b5b600083013567ffffffffffffffff811115610f7357610f72611651565b5b610f7f85828601610e90565b92509250509250929050565b600060208284031215610fa157610fa0611656565b5b600082013567ffffffffffffffff811115610fbf57610fbe611651565b5b610fcb84828501610ee6565b91505092915050565b600060208284031215610fea57610fe9611656565b5b6000610ff884828501610f14565b91505092915050565b60006020828403121561101757611016611656565b5b600061102584828501610f29565b91505092915050565b6000806040838503121561104557611044611656565b5b600061105385828601610f14565b925050602083013567ffffffffffffffff81111561107457611073611651565b5b61108085828601610e62565b9150509250929050565b61109381611454565b82525050565b6110a2816113bd565b82525050565b6110b1816113cf565b82525050565b6110c0816113db565b82525050565b60006110d182611362565b6110db818561136d565b93506110eb8185602086016114bd565b6110f48161165b565b840191505092915050565b61110881611466565b82525050565b600061111b60008361137e565b91506111268261166c565b600082019050919050565b61113a816113f8565b82525050565b6111498161149c565b82525050565b61115881611426565b82525050565b61116781611430565b82525050565b61117681611440565b82525050565b60006111878261110e565b9150819050919050565b60006020820190506111a66000830184611099565b92915050565b60006020820190506111c1600083018461108a565b92915050565b60006040820190506111dc6000830185611099565b6111e96020830184611099565b9392505050565b600060408201905061120560008301856110a8565b818103602083015261121781846110c6565b90509392505050565b600060a08201905061123560008301886110b7565b611242602083018761116d565b61124f6040830186611131565b61125c606083018561115e565b6112696080830184611140565b9695505050505050565b600060208201905061128860008301846110ff565b92915050565b60006020820190506112a3600083018461114f565b92915050565b60006060820190506112be600083018661114f565b6112cb602083018561114f565b6112d8604083018461114f565b949350505050565b60006112ea6112fb565b90506112f682826114f0565b919050565b6000604051905090565b600067ffffffffffffffff8211156113205761131f61160e565b5b602082029050602081019050919050565b600067ffffffffffffffff82111561134c5761134b61160e565b5b6113558261165b565b9050602081019050919050565b600081519050919050565b600082825260208201905092915050565b600081905092915050565b600061139482611426565b915061139f83611426565b9250828210156113b2576113b1611552565b5b828203905092915050565b60006113c882611406565b9050919050565b60008115159050919050565b6000819050919050565b60008190506113f38261166f565b919050565b600061ffff82169050919050565b600073ffffffffffffffffffffffffffffffffffffffff82169050919050565b6000819050919050565b600063ffffffff82169050919050565b600067ffffffffffffffff82169050919050565b600061145f82611478565b9050919050565b6000611471826113e5565b9050919050565b60006114838261148a565b9050919050565b600061149582611406565b9050919050565b60006114a7826113f8565b9050919050565b82818337600083830152505050565b60005b838110156114db5780820151818401526020810190506114c0565b838111156114ea576000848401525b50505050565b6114f98261165b565b810181811067ffffffffffffffff821117156115185761151761160e565b5b80604052505050565b600061152c82611426565b915061153783611426565b92508261154757611546611581565b5b828206905092915050565b7f4e487b7100000000000000000000000000000000000000000000000000000000600052601160045260246000fd5b7f4e487b7100000000000000000000000000000000000000000000000000000000600052601260045260246000fd5b7f4e487b7100000000000000000000000000000000000000000000000000000000600052602160045260246000fd5b7f4e487b7100000000000000000000000000000000000000000000000000000000600052603260045260246000fd5b7f4e487b7100000000000000000000000000000000000000000000000000000000600052604160045260246000fd5b600080fd5b600080fd5b600080fd5b600080fd5b600080fd5b600080fd5b6000601f19601f8301169050919050565b50565b600281106116805761167f6115b0565b5b50565b61168c81611426565b811461169757600080fd5b5056fea26469706673582212202e3b27e32304eebbd7157ca301614fe33466b779af6f78679c6f1071b7049dd064736f6c63430008070033",
  "linkReferences": {},
  "deployedLinkReferences": {}
}